:020000040800F2
:10000000C805002001010008A32500089920000868
:10001000A125000859070008992A000800000000DF
:10002000000000000000000000000000F9260008A9
:100030005309000800000000A52500081727000844
:100040001B0100081B0100081B0100081B01000820
:100050001B0100081B0100081B0100081B01000810
:100060001B0100081B0100081B0100081B01000800
:100070001B0100081B0100081B0100081B010008F0
:100080001B0100081B0100081B0100081B010008E0
:100090001B0100081B0100081B0100081B010008D0
:1000A0001B0100081B0100081B0100081B010008C0
:1000B0001B0100081B0100081B0100081B010008B0
:1000C0001B0100081B0100081B0100081B010008A0
:1000D0001B0100081B0100088D2A00081B010008F5
:1000E0001B0100081B0100081B010008DFF80CD0F1
:1000F00000F0A2FA00480047D5330008C8050020E8
:100100000648804706480047FEE7FEE7FEE7FEE7B1
:10011000FEE7FEE7FEE7FEE7FEE7FEE769270008E9
:10012000ED000008202A04DB203A21FA02F0002129
:10013000704721FA02F3D040C2F1200291400843F7
:100140001946704740EA01039B0703D009E008C93C
:10015000121F08C0042AFAD203E011F8013B00F88C
:10016000013B521EF9D27047D2B201E000F8012BD8
:10017000491EFBD270470022F6E710B513460A4627
:1001800004461946FFF7F0FF204610BD421C10F848
:10019000011B0029FBD1801A7047962300221146CB
:1001A00000F063B800F0004230F000400AD0C10D0A
:1001B00001F56071C0F3160042EA0151C208400720
:1001C0001143704700200146704730B50B46014689
:1001D00000202022012409E021FA02F59D4205D3E6
:1001E00003FA02F5491B04FA02F52844151EA2F190
:1001F0000102F1DC30BD2DE9F05F0546002092469A
:100200009B4688460646814640241BE028464146D8
:1002100047462246FFF786FF53465A46C01A914189
:1002200010D311461846224600F018FA2D1A67EB33
:1002300001084F4622460120002100F00FFA17EB7B
:1002400000094E41201EA4F10104DFDC484631467E
:100250002A464346BDE8F09F0029A8BF7047401CCE
:10026000490008BF20F00100704710B4B0FA80FCCC
:1002700000FA0CF050EA010404BF10BC704749B109
:10028000CCF1200421FA04F411FA0CF118BF012179
:1002900021430843A3EB0C01CB1D4FEA00614FEA59
:1002A000102042BF002010BC704700EBC350104428
:1002B0000029A4BF10BC7047401C490008BF20F0B3
:1002C000010010BC70472DE9FE4F804681EA030013
:1002D000C00F0C46009021F0004123F00045B8EB20
:1002E0000200A94105D24046214690461C460B46D5
:1002F000024623F00040104347D0270DC7F30A0001
:10030000C3F30A510290401A019040286BDAC3F3FC
:10031000130040F4801B0098924620B10023D2EBDA
:10032000030A63EB0B0B01985946C0F1400250469B
:1003300000F094F906460D4650465946019A00F0E1
:100340009CF910EB08006141002487EA115284EA0D
:10035000E7731A4340D0009A62B3019A012A4FEA28
:10036000075215DC001B61EB02014FF0004202EA6C
:100370000752CDE90042001C41F5801132462B4660
:1003800000F09CF903B0BDE8F08F40462146F9E744
:10039000001B61EB0201001C41F5801300185B415A
:1003A0002018A2F5001747EB030140EAD570B619F3
:1003B0006D4111E06D084FEA360645EAC0754FEA17
:1003C0000752001B61EB0201001C41F58011490836
:1003D0004FEA30000019514132462B4603B0BDE8C8
:1003E000F04F00F05CB90098012240000023D0EBF0
:1003F000020263EBE073009821464FEAE074B8EB29
:10040000000061EB0401E9E783F000435BE781F062
:10041000004158E72DE9FE4F81EA030404F000444F
:1004200021F0004100944FF0000B23F0004350EA0C
:1004300001045ED052EA03045BD0C3F30A54C1F353
:100440000A552C44A4F2F3340194A0FB0254C1F3E6
:10045000130141F48011C3F3130343F4801301FB30
:10046000024400FB034E840A970A44EA815447EA97
:100470008357A4FB076802958D0A05FB07854FEAA1
:10048000932C04FB0C542705029D4FEA065847EABB
:100490001637B5EB08056EEB070C870E920E47EA90
:1004A000811742EA8312A7FB0201B6EB0B0164EB52
:1004B00000042B0D43EA0C335E1844EB1C50DA4663
:1004C0005146E7FB0201C5F313044FEA0B3343EA3D
:1004D00014534FEA0432019C43EA0603A4F10C04CE
:1004E0000294009CCDE900B400F0E8F803B0BDE848
:1004F000F08F00200146F9E72DE9F04D81EA030471
:1005000004F0004B21F0004514464FF0000A23F0A0
:10051000004150EA050220D054EA01021DD0C5F383
:100520000A570246C5F31303C1F31300C1F30A5679
:1005300040F4801543F48013A7EB0608101BD64641
:1005400008F2FD3873EB050002D308F1010801E061
:1005500092185B41B8F1000F03DA00200146BDE8B4
:10056000F08D00204FF48011064684460EE0171BE4
:1005700073EB050705D3121B63EB050306434CEA37
:10058000010C49084FEA300092185B4150EA01071C
:10059000EDD152EA030012D082EA040083EA050199
:1005A000084305D0101BAB4106D20122002306E010
:1005B00000224FF0004302E06FF0010253101AEBEB
:1005C00006004CEB085110EB0A0041EB0B01BDE8B3
:1005D000F04D00F064B8C1F30A52C1F3130140F2C8
:1005E000FF3341F480119A4202DA0020014670473D
:1005F00040F233439A42A2F2334202DC5242FFF706
:1006000091BD00F02BB8000030B5041E71F100045C
:1006100004DB4FF00044404264EB0101141E73F10F
:10062000000405DB1C464FF00043524263EB040319
:10063000994208BF904230BD064C074D06E0E06885
:1006400040F0010394E8070098471034AC42F6D319
:10065000FFF750FD3439000854390008202A04DB24
:10066000203A00FA02F1002070479140C2F12003C5
:1006700020FA03F3194390407047202A06DBCB177A
:10068000203A41FA02F043EAE07306E041FA02F34D
:10069000D040C2F12002914008431946704710B57E
:1006A000141E73F1000408DA401C41F10001921895
:1006B0005B411A4301D120F0010010BD2DE9F04D3E
:1006C00092469B4611B1B1FA81F202E0B0FA80F293
:1006D00020329046FFF7C2FF04460F4640EA0A0068
:1006E00041EA0B0153465A46084313D0114653EAD8
:1006F000010019D0C8F140025046FFF713FD05462E
:100700000E46504659464246FFF7A8FF084305D01B
:10071000012004E020463946BDE8F08D0020054365
:1007200046EAE0762C4337430A986305E40AA0EBD7
:1007300008000022FD0A44EA47540A3002D500208E
:100740000146E9E7010510196941DDE9084500198D
:100750006941BDE8F04DA2E7FEE701F009BA10B526
:10076000036800225A624FF47A7303E00268546A05
:100770009C42FCD3491E89B2F8D210BD0368002206
:100780005A620068426A8A42FCD370470068FFF7E9
:10079000E6BF0068FFF7F2BF30B48260838001607B
:1007A00030BC0846FFF7D9BF2DE9F04107460025C8
:1007B00000F057F800240126384600F061F80021C7
:1007C000384600F0C0F801213846FFF7E2FF38460E
:1007D00000F047F8384600F00FF818B106FA04F0B8
:1007E0002843C5B232213846FFF7D3FF641C082CDA
:1007F000E2DB2846BDE8F0818188806800F01CBA01
:1008000070B5044600F04DF801212046FFF7BEFF09
:10081000CC21204600F066F84421204600F062F822
:10082000C8212046FFF7B2FF204600F03AF8012128
:100830002046FFF7ABFFCC21204600F053F8BE2145
:10084000204600F04FF82046FFF7AEFF0546204651
:10085000FFF7AAFF45EA00200009FFF79EFCE060D1
:1008600070BD1FB500210091019102910391818813
:100870000091012102918068694600F0EDF81FBDEA
:100880001FB500210091019102910391818800918F
:1008900001210191022103918068694600F0DCF892
:1008A0001FBD70B505460024FFF7EAFF002128466A
:1008B00000F049F84FF4F0712846FFF76AFF284628
:1008C000FFF7CFFF50212846FFF763FF2846FFF7C9
:1008D00093FF00B901244FF4C8712846FFF759FF70
:1008E000204670BD2DE9F0410E460746FFF7C8FFD0
:1008F0000024012505FA04F03042384611D0FFF7F4
:10090000BFFF0021384600F01EF801213846FFF7EE
:1009100040FF3846FFF7A5FF32213846FFF739FF81
:100920000CE0FFF7ADFF0021384600F00CF8322153
:100930003846FFF72EFF3846FFF793FF641C082C5C
:10094000D8DBBDE8F08183880A468068194600F04C
:1009500078B9704710B590F821100022022905D00F
:100960000421816380F82020012010BD01680B68FC
:1009700023F00E030B6001680B6823F001030B608A
:1009800090F84030C46B012101FA03F3636080F8F2
:10099000211080F82020104610BD000010B590F8FE
:1009A00021100024022903D00421816301243DE0A9
:1009B00001680A6822F00E020A6001680A6822F0E3
:1009C00001020A601A4A0168914201D1012121E025
:1009D000174A1432914201D110211BE0144A2832E7
:1009E000914201D1891515E0114A3C32914201D161
:1009F00089140FE00E4A5032914202D14FF48031F7
:100A000008E00B4A6432914202D14FF4801101E0B8
:100A10004FF08071064A083A5160012180F8211098
:100A2000002180F82010416B01B18847204610BD9D
:100A30000800024070B5044600F008F90546601C45
:100A400002D004480078044400F000F9401BA042A2
:100A5000FAD370BD340000202DE9F84FDFF8B891CB
:100A6000002409F1040A0AF1040B23460F270BF1B5
:100A7000040EC9E00125A5402A40AA427DD1674E57
:100A8000D1F804C0ACEB0608B44532D014DCBCF19C
:100A9000030F3AD009DCBCF1000F2AD0BCF1010FE2
:100AA0001CD0BCF1020F31D11DE0BCF1110F17D0E9
:100AB000BCF1120F2AD119E0B8F5881F19D006DC55
:100AC000B8F5803F15D0B8F5801F1FD111E0B8F5FB
:100AD000001F0ED0B8F5041F18D10AE0CB6815E04E
:100AE000CB681B1D12E0CB6808330FE0CB680C33DA
:100AF0000CE08B682BB1012B4FF0080303D045614C
:100B000004E0042302E0056100E00023FF2A01D88D
:100B1000064601E000F104064FEA840501D9A5F17B
:100B20002005D6F8008007FA05FC28EA0C0803FA2D
:100B300005F548EA0508C6F800804D68ED0062D565
:100B4000374DAE6946F00106AE61AD6924F003068B
:100B500005F001050095334D06EB050CDCF8085057
:100B6000A607360F07FA06F825EA0805DFF8B88069
:100B7000404503D14FF0000817E044E0DFF8AC80B7
:100B8000404502D14FF001080FE0DFF8A480404556
:100B900002D14FF0020808E0DFF89880404502D10A
:100BA0004FF0030801E04FF0040808FA06F848EA9D
:100BB0000508CCF808804D68D9F80060ED034D4673
:100BC00001D5164300E096432E604D68DAF80060C8
:100BD000AD03554601D5164300E096432E604D689F
:100BE000DBF80060ED025D4601D5164300E0964358
:100BF0002E604D68DEF80060AD02754601D51643E3
:100C000000E096432E60641C0D682A46E5407FF4A0
:100C100031AFBDE8F88F0000000401400000111062
:100C2000001002400000014000080140000C01409B
:100C300000100140001401408068084000D00120ED
:100C400070470AB1016170470904FBE701488068F9
:100C5000704700003400002070B5040025D094F8DF
:100C60003D00002520B984F83C50204600F078FA79
:100C7000242084F83D002068016821F00101016012
:100C80002068016841F4004101602068016821F496
:100C90000041016000F0C0FB4D4A6168914201D8FB
:100CA0004C4900E04C49884201D2012070BD4B49BB
:100CB0002368B0FBF1F15E6826F03F060E435E60EC
:100CC0006368934206D94FF4967359434FF47A738D
:100CD000B1FBF3F12368491C1E6A26F03F0631433D
:100CE00019626168914210D84900401EB0FBF1F2D0
:100CF000521CC2F30B02042A01D2042022E0B0FBF2
:100D0000F1F0401CC0F30B001CE0A268F2B301EB51
:100D1000C10303EB0116431EB3FBF6F35B1C43F464
:100D200080431B0549D092B301EBC10202EB0111D4
:100D3000401EB0FBF1F0401CC0F30B0040F48040BB
:100D400040F400402168CA694CF6FF739A4310438F
:100D5000C861D4E9071001432068026822F0C0028C
:100D600011430160D4E9030101432068826848F21D
:100D7000FF339A4311438160D4E905010843216898
:100D8000CA6822F0FF021043C86001E00EE016E0DE
:100D90002068016841F0010101602564202084F889
:100DA0003D00256384F83E50002070BD01EB4106F4
:100DB000431EB3FBF6F35B1CB3E70120C2E701EB74
:100DC0004101401EB0FBF1F0401CC0F30B00B7E73F
:100DD000A086010080841E0000093D0040420F00F3
:100DE0002DE9FF4F83B00025DDE910799A4693463F
:100DF0000446DDF848800095FFF728FF064694F882
:100E00003D0020287CD119230122854920460096E7
:100E100001F052FA0028F5D194F83C0001286FD077
:100E2000012084F83C0020680168C90703D10168EB
:100E300041F0010101602068016821F40061016056
:100E4000222084F83D00402084F83E00256467623B
:100E5000A4F82A90608D20857248E062CDE9008672
:100E600053465A462046049901F02EF900287DD1B8
:100E7000208DDFF8B491202768B1012814D0022812
:100E8000206801681ED041F48061016020684169DA
:100E900080690090B6E0206841698169009101682D
:100EA00041F400710160ADE02068016821F48061C7
:100EB000016072B62068416981690091016841F45E
:100EC00000710AE041F40061016072B62068416976
:100ED00081690091016821F48061016062B691E04E
:100EE000032868D801280CD0022843464FF000029E
:100EF0004946204600960FD001F0DEF9B0BB10E065
:100F00008BE032464146204601F055FA70BB20681E
:100F10000069616A08706CE001F0CEF930BB72B60E
:100F200034E02068016821F48061016072B62068B5
:100F30000069616A0870606A401C6062208D401E12
:100F40002085608D401E6085384846F2A8110068F3
:100F5000B0FBF1F0C0EBC00000EB80000090401E41
:100F6000009008D020684069C04300E029E04007B5
:100F70000CD50098F3E744F8305F6773A5732069D8
:100F800040F02000206162B625731AE020680168F5
:100F900041F40071016020680069616A0870606A4C
:100FA000401C6062218D491E2185618D491E61852D
:100FB00062B621681BE032464146204601F0FBF94B
:100FC00018B1012007B0BDE8F08F20680069616AA0
:100FD0000870606A401C6062218D491E2185618D08
:100FE000491E618521684A69D24352070AD40969BA
:100FF0000170606A401C6062208D401E2085608DFB
:10100000401E6085208D00287FF46AAF84F83D7013
:1010100084F83E5084F83C50D4E70220D2E7000028
:10102000020010000000FFFF04000100400000204B
:101030002DE9FF4F83B09A46DDE9119793460446A8
:10104000DDF84080FFF702FE054694F83D002028B9
:101050007FD11923012240492046009501F02CF947
:10106000002876D194F83C00012872D0012084F841
:101070003C0020680168C90703D1016841F0010103
:1010800001602068016821F400610160212084F87A
:101090003D00402084F83E0000262664C4F82480E9
:1010A000A4F82A90608D20852C48E062CDE9007577
:1010B00053465A462046049901F084F870B930E04E
:1010C0002A463946204601F0A9F958B1206C042877
:1010D00004D12068016841F400710160012007B06B
:1010E000BDE8F08F606A216800780861606A401C82
:1010F0006062218D491E89B22185628D521E6285F2
:1011000022685369DB435B070BD469B10078106137
:10111000606A401C6062208D401E2085608D401EEC
:101120006085208D0028CBD12A463946204601F023
:101130009DF80028CAD154F83D0B016841F40071B4
:101140000160202004F81E09E67766770020C6E7D4
:10115000FFE70220C3E70000020010000000FFFFCD
:1011600010B586B0002100910191029103910068B1
:101170000F4988421AD10F4CA06940F00800A061C5
:10118000A069694600F008000490C0200090122079
:101190000190032003900848FFF75EFCE06940F4EB
:1011A0000010E061E06900F40010049006B010BD8A
:1011B0000054004000100240000C014002488168C9
:1011C000027811448160704734000020074810B550
:1011D000016841F010010160032000F075F8002063
:1011E00000F006F800F024F8002010BD00200240B6
:1011F00070B50D4D04464FF47A712878B1FBF0F0CC
:101200000A490968B1FBF0F000F027FC48B9102C3E
:1012100007D200222146501E00F036F800206C60F4
:1012200070BD012070BD000034000020400000208F
:101230000C4808B5816941F001018161816901F0C3
:1012400001010091C16941F08051C161C06900F0A4
:10125000805000900448416821F0E06141F0007145
:10126000416008BD0010024000000140002809DB79
:1012700000F01F02012191404009800000F1E020B0
:10128000C0F8001170470000F0B40E4B1B680C460C
:10129000C3F30223C3F10705042D00D90425191D4A
:1012A000072901D2002300E0DB1E012606FA05F122
:1012B000491E214099409E40761E16403143F0BCA5
:1012C00001F00EBC0CED00E0064900F007020868D2
:1012D0004FF6FF03184040EA0220034A104308601B
:1012E000704700000CED00E00000FA052DE9F04722
:1012F0000F46050061D0434E306800F00700B84249
:1013000009D2306820F0070038433060306800F0C0
:101310000700B84251D128683B4C810712D54007DD
:1013200003D5606840F4E06060602878000703D56A
:10133000606840F4605060606068A96820F0F00068
:10134000084360602878C00728D06868012810D05A
:101350002168022810D0890700292EDA616821F05F
:10136000030101436160FFF771FC804641F2883957
:101370000DE021688903EFE78901EDE7FFF766FCDF
:10138000A0EB0801494502D90320BDE8F087606859
:10139000696800F00C00B0EB810FEFD1306800F00D
:1013A0000700B8420BD9306820F00700384330609E
:1013B000306800F00700B84201D00120E5E7287846
:1013C000400705D56068E96820F4E0600843606084
:1013D0002878000706D56068296920F4605040EA43
:1013E000C100606000F038F86168084AC1F3031179
:1013F000515CC8400649086006480068FFF7F8FEDF
:101400000020C2E700200240001002401A39000804
:101410004000002038000020044805490068496861
:10142000044AC1F30221515CC840704740000020CB
:10143000001002402A39000804480549006849683C
:10144000044AC1F3C221515CC840704740000020EB
:10145000001002402A39000812A185B00FC98DE89A
:101460000F0014A0144A006804905168134801F05A
:101470000C03042B10D0082B0ED1C1F38343C903F6
:101480001DF803000AD5516804AAC1F34041515C1C
:101490000A4A5043B0FBF1F005B070470849484391
:1014A000FAE7000002030405060708090A0B0C0D01
:1014B0000E0F1010010200000010024000127A000E
:1014C00000093D002DE9F84F040070D02078C04D90
:1014D000C00749D06868C0F38100012807D0686858
:1014E000C0F38100022809D16868C00306D52868C6
:1014F000800339D560680028E7D035E06068B0F532
:10150000803F0BD010B1B0F5A02F11D0286820F487
:1015100080302860286820F4802002E0286840F4A9
:1015200080302860606890B1FFF790FB06460AE0C3
:10153000286840F480202860F0E700BFFFF786FBB2
:10154000801B642873D828688003F7D50CE0FFF768
:101550007DFB064605E000BFFFF778FB801B642893
:10156000F0D828688003F7D420789A4E80074FF08F
:1015700001094FF0000839D5686810F00C0F07D04A
:101580006868C0F38100022809D16868C00306D4E6
:101590002868800714D52069012808D110E0206947
:1015A000B0B1C6F80090FFF751FB074605E00AE12D
:1015B000FFF74CFBC01B0228C4D828688007F7D56A
:1015C0002868616920F0F80040EAC10028600DE059
:1015D000C6F80080FFF73AFB074604E0FFF736FB4A
:1015E000C01B022823D828688007F7D4207800077A
:1015F0002CD57948A169D9B1C0F80090FFF726FB36
:10160000074604E0FFF722FBC01B02280FD8686AD8
:101610008007F7D571484FF4FA510068B0FBF1F03C
:10162000009000BF0098411E0091FAD20EE080E0C9
:10163000C0F80080FFF70AFB074604E0FFF706FB4F
:10164000C01B022875D8686A8007F7D42078400745
:1016500060D5E8690027C00008D4E86940F08050F0
:10166000E861E869012700F0805000905C4801685B
:10167000C90513D40168834641F480710160FFF706
:10168000E5FA824606E000BFFFF7E0FAA0EB0A00A9
:1016900064284ED8DBF80000C005F5D5E0680128C5
:1016A0000AD008B1052813D0286A20F0010028626A
:1016B000286A20F0040002E0286A40F00100286255
:1016C000E06841F2883B98B1FFF7C0FA82460BE030
:1016D000286A40F004002862EEE700BFFFF7B6FA80
:1016E000A0EB0A0159455AD8286A8007F6D50CE0C4
:1016F000FFF7ACFA824605E0FFF7A8FAA0EB0A0173
:1017000059454CD8286A8007F6D41FB1E86920F003
:101710008050E861E06988B36968C1F381010229FA
:1017200044D00228C6F8608004D0FFF78FFA044640
:1017300038E034E0FFF78AFA074604E0FFF786FA5C
:10174000C01B02282BD828688001F7D4206AB0F586
:10175000803F05D16868A16820F4003008436860C4
:10176000D4E908010843696821F4741108436860EA
:10177000C6F86090FFF76AFA044606E025E000BF6D
:10178000FFF764FA001B022809D828688001F7D502
:101790001BE000BFFFF75AFA001B022802D9032002
:1017A000BDE8F88F28688001F4D40EE00128F7D056
:1017B0006868226A00F48031914204D1616A00F4C1
:1017C0007010884201D00120EAE70020E8E700001D
:1017D00000100240000042428004424240000020CB
:1017E0000070004070B5040009D0606A002540B167
:1017F00025616561A56294F8510040B10CE00120BB
:1018000070BD6068B0F5827FF4D0E561F2E784F8DE
:101810005050204600F040F8022084F85100206823
:10182000016821F040010160A088218900F48270E4
:1018300001F404410843A18901F400610843217CBB
:1018400001F002010843217D01F001010843218BD1
:1018500001F400710843217F01F03801084394F836
:10186000201001F080010843218D01F4005108434C
:1018700021680860A069042101EA104021684860DD
:101880002068C16921F40061C1616565012084F8A7
:101890005100002070BD000000B585B0002100910E
:1018A00001910291039100680F4988421AD10F48B3
:1018B000816941F480518161816901F48051049111
:1018C000816941F0040181618069694600F004008A
:1018D0000490A0200090022001900320039004486F
:1018E000FFF7BAF805B000BD00300140001002401B
:1018F000000801402DE9F84F044690F850000027F9
:101900001D461646894601280DD04FF0010B84F87C
:1019100050B0FFF79BF9804694F85100BA46012871
:1019200004D0022793E00220BDE8F88FB9F1000F40
:1019300073D0002E71D0032084F85100C4F854A055
:10194000C4F83090A686E686C4F838A0A4F83CA077
:10195000A4F83EA0C4F844A0C4F840A0A068B0F524
:10196000004F09D12068016821F040010160206822
:10197000016841F48041016020680168490603D490
:10198000016841F040010160E068B0F5006F6068F7
:1019900003D030B3012E24D041E008B1012E1CD178
:1019A000206B21680088C86006E02068816889078C
:1019B00009D5216B0988C160206B801C2063E08EF3
:1019C000401EE08609E0FFF741F9A0EB0800A842BD
:1019D00002D3681C01D031E07DB3E08E0028E4D151
:1019E00020E0206B21680078087306E02068816899
:1019F000890709D5216B09780173206B401C20638E
:101A0000E08E401EE0860AE0FFF720F9A0EB080018
:101A1000A84203D3681C02D010E017E06DB1E08E3D
:101A20000028E3D142462946204600F0F9FD08B1DE
:101A300020206065A06818B106E0FFE7032706E0F4
:101A40002068C16880680090606D00B1012784F84B
:101A500051B084F850A0384666E710B5401EB0F18A
:101A6000807F01D3012010BD4FF0E02460610F2181
:101A7000601701F035F80020A061072020610020E8
:101A800010BD000070B590F83C20012A26D001243A
:101A900080F83C40022280F83D2003685A689D6827
:101AA00022F070060A6832435A600D4B02689A426F
:101AB00008D0B2F1804F05D00A4B9A4202D00A4BAF
:101AC0009A4204D1496825F080031943916080F857
:101AD0003D40002180F83C10084670BD022070BDDA
:101AE000002C0140000400400008004010B5040034
:101AF00003D094F83D0010B107E0012010BD002094
:101B000084F83C00204600F01FF8022084F83D00D5
:101B1000211D206800F02AFE012084F8460084F888
:101B20003E0084F83F0084F8400084F8410084F8C7
:101B3000420084F8430084F8440084F8450084F8A7
:101B40003D00002010BD000008B50068064988422D
:101B500008D10648C16941F00401C161C06900F0C3
:101B60000400009008BD0000000800400010024082
:101B700090F83D10012901D001207047022180F822
:101B80003D1000680B49884208D0B0F1804F05D065
:101B90000949884202D00949884204D1816801F08C
:101BA0000701062903D0016841F00101016000200E
:101BB00070470000002C0140000400400008004075
:101BC00070B5044690F83C00012817D0012584F830
:101BD0003C50022084F83D002068826822F07702A1
:101BE00022F47F4282600868502830D00DDC202823
:101BF0004DD005DC98B310283BD148E0022070BDE1
:101C0000302844D0402834D139E0602828D07028CA
:101C100006D0B0F5805F2CD0B0F5005F29D10AE086
:101C2000CB68D1E90121206800F0D6FD20688168E9
:101C300041F0770109E0CB68D1E90121206800F08B
:101C4000CBFD2068816841F48041816011E0CA6861
:101C50004968206800F0D2FD5021206807E016E0B6
:101C6000CA684968206800F0DAFD6021206800F049
:101C7000BDFD84F83D50002084F83C0070BDCA686A
:101C80004968206800F0BAFD40212068EFE722682B
:101C900001461046EBE7704770470000F8B5026850
:101CA00004461068D168536910F00F0F4FF000051B
:101CB00054D003F0010601F4907737435FD0C20798
:101CC00005D0CA0503D5226C42F001022264420706
:101CD00005D5DA0703D0226C42F0020222648207A3
:101CE00005D5DA0703D0226C42F004022264020711
:101CF00007D501F02002324303D0226C42F00802E3
:101D00002264226C002A35D0800604D5880602D5CC
:101D1000204600F0B6FD20684069216CC0F38010B9
:101D200001F008010143204625D000F092FD206813
:101D3000416949061BD5416921F040014161A06B11
:101D4000A8B158494163A06BFEF728FE002811D0C6
:101D5000A06B416B01B0BDE8F040084783060ED58B
:101D60008B060CD52046BDE8F84000F08ABD204621
:101D7000FFF792FFF8BDFFF78FFF2564F8BD266BD4
:101D80002023012E52D1C60650D5CE064ED510685E
:101D900050680090506940062AD5A16B08684068D9
:101DA0000004000CEAD0A68D8642E7D9E085886958
:101DB000202818D0D06820F48070D0602068416955
:101DC00021F0010141612068416921F04001416138
:101DD00084F83E3025632068C16821F01001C1609D
:101DE000A06BFEF7B7FDA08DE18D401A81B219E01E
:101DF000A08DE18D401A81B2E08D0028BED000296F
:101E0000BCD0D06820F49070D0602068426922F085
:101E10000102426184F83E3025632068C26822F0E6
:101E20001002C2602046FFF736FFF8BD05062BD52D
:101E30000D0629D594F83D002128F6D1A068B0F50B
:101E4000805F01D12069B0B1206A411C2162216804
:101E500000784860E08C401E0004000CE084E4D16F
:101E60002068C16821F08001C1602068C16841F02C
:101E70004001C160F8BD206A0088C0F308005060CE
:101E8000206A801C2062E5E74006F3D54806F1D5BC
:101E9000D168204621F04001D16084F83D3000F047
:101EA000FAF8F8BD4328000870B5040004D094F88F
:101EB0003D00002510B106E0012070BD84F83C50C3
:101EC000204600F023F8242084F83D002068C168F3
:101ED00021F40051C160204600F02EFD2068016908
:101EE00021F4904101612068416921F02A0141619A
:101EF0002068C16841F40051C1602564202084F845
:101F00003D0084F83E00002070BD000030B585B073
:101F100000240094019402940394006818498842B4
:101F20002BD11848C16941F40031C161C16901F484
:101F300000310491816941F0040181618069124D91
:101F400000F004000490042000900220019003207F
:101F5000039069462846FEF77FFD0820CDE900047E
:101F6000694628460294FEF777FD00221146262096
:101F7000FFF78AF92620FFF779F905B030BD000098
:101F800000440040001002400008014090F83E303C
:101F9000202B0ED159B152B190F83C30012B08D012
:101FA000012380F83C300023036300F021BD0120B1
:101FB000704702207047000010B5094900680968A1
:101FC000884204D106481221683000F0EDFA044935
:101FD0001222BDE8104068310148FFF7D7BF00006A
:101FE000380100202DE9F843044690F83D001F46D3
:101FF00016460D4620284CD1C5B1BEB194F83C0020
:10200000012846D0012084F83C004FF00008C4F8B5
:102010004080212084F83D00FEF718FEA68481460A
:10202000E684A068B0F5805F03D004E00120BDE83D
:10203000F883206928B12E465FF0000584F83C80C3
:102040000EE00026FAE78021204600F0ECFCA0B963
:10205000AEB116F8010B21684860E08C401EE084A8
:10206000E08C4B464FF0000200970028EBD14FF078
:102070004001204600F0D7FC30B10320D7E735F807
:10208000020BC0F30800E6E7202084F83D000020A2
:10209000CDE70220CBE77047FEE701684A69D243EB
:1020A00052050FD46FF480624A61002140F8301F5E
:1020B000202242738173026942F0040202610173BB
:1020C00001207047002070472DE9F84F0446006852
:1020D00089460B9D01689846174641F4806101606E
:1020E0002068016841F48071016000954FF0011B88
:1020F0000022594620460A9B00F0DEF84FF4007A91
:1021000040B120680068C00501D5C4F840A0032094
:10211000BDE8F88F216809F0FE0008612B462849C8
:1021200020460A9A00F0FCF8F0BB206841698069FB
:1021300000902A4620460A9900F070F940B1206CC0
:1021400004283AD12068016841F40071016034E04C
:10215000FEB2B8F1010F09D02168380A08612A4699
:1021600020460A9900F05AF90028E8D12068066153
:102170002A4620460A9900F051F90028DFD120684C
:10218000016841F4807101600095002259462046A3
:102190000A9B00F091F80028B3D1216809F0FF00F4
:1021A00040F00100086100E007E02B4604492046AA
:1021B0000A9A00F0B5F80028AAD00120A8E700008C
:1021C000020001002DE9F843044600680D46DDE9F0
:1021D000089701689846164641F4807101604B46A5
:1021E00000224FF001112046009700F065F848B139
:1021F00020680068C00502D54FF4007020640320F9
:10220000BDE8F883216805F0FE0008613B464A46B8
:102210001549204600F084F888B920684169806932
:1022200000903A464946204600F0F8F848B1206C44
:10223000042804D12068016841F400710160012084
:10224000DEE7F5B2B8F1010F09D02168300A086164
:102250003A464946204600F0E1F80028E7D12068D8
:1022600005610020CCE700000200010070B51646B1
:102270000D4604460DE02046FFF70FFF08B1012090
:1022800070BD681C05D0FEF7E1FC801BA84207D892
:1022900035B120684069C0434007ECD4002070BDD0
:1022A000002044F8300F20216173A073216941F0B0
:1022B000200121612073E2E72DE9F0471E46904698
:1022C0000D460446C1F30747DDF8209008E0701C76
:1022D00006D0FEF7BBFCA0EB0900B0420FD876B1E8
:1022E0002068012F18D0806925EA00000004000C46
:1022F00014D000214145EAD00020BDE8F08700203D
:1023000044F8300F20216173A073216941F020014E
:10231000216120730120F0E74069E5E70121E9E749
:102320002DE9F0479A4691460E46044600254FF0A7
:102330002008C1F3074725E020684069C0434005F5
:1023400014D42068016841F40071016021686FF4C1
:1023500080604861256384F83D8084F83E50206C9D
:1023600040F00400206484F83C501FE0B9F1FF3FC6
:1023700008D0FEF76BFCA0EB0A0149450CD8B9F177
:10238000000F09D02068012F13D0806926EA0000D1
:102390000004000C0BD0CFE744F8305F84F80D80C8
:1023A000A573206940F02000206125730120BDE85D
:1023B000F0874069EAE72DE9F041002590460E4696
:1023C0000446202717E04069C043C0060CD454F8E7
:1023D000301B6FF01000486144F810596777A577FB
:1023E000206A2062257717E0FEF730FCA0EB08009A
:1023F000B04208D83EB120684169C9434906E2D4D9
:102400000020BDE8F08144F8305F6773A573206950
:1024100040F02000206125730120F2E770B51646D8
:102420000D4604460DE02046FFF737FE08B10120B7
:1024300070BD681C05D0FEF709FC801BA84207D8B8
:1024400035B120684069C0430006ECD4002070BD5F
:10245000002044F8300F20216173A073216941F0FE
:10246000200121612073E2E72DE9F04385B00024CB
:1024700025480094019402940394816941F010016D
:102480008161816901F010010491816941F02001AD
:102490008161816901F020010491816941F00401A9
:1024A0008161816901F004010491816941F00801B1
:1024B00081618069DFF8548000F008004FF4005516
:1024C0000490002229464046FEF7BBFBDFF840900F
:1024D00048F20107002239464846FEF7B2FB009554
:1024E000022601250396CDE9015469464046FEF7D0
:1024F000B3FA00970396CDE9015469464846FEF7C2
:10250000ABFA05B0BDE8F0830010024000100140B6
:10251000000C01400C480B494FF4007201604FF46D
:102520008271416000218160C1600161C0E90512D2
:102530001022C0E90721416281620A21C162FFF7CE
:1025400051B90000003001409800002010B586B05D
:1025500000241248009401940294039404940E49B8
:10256000059401604721C0E901144FF6FE71C0E9EE
:1025700003148461FFF7BAFA4FF480500090694663
:102580000648FFF71DFB049404A904480594FFF7CF
:1025900079FA06B010BD000000080040F0000020ED
:1025A000FEE770477047000070B516490546154CA8
:1025B00000780978E41E88421FD1211D687C0978C3
:1025C00088421AD104220121284601F095F90068B9
:1025D000606103220521284601F08EF9018861819E
:1025E0008078207308221146284601F085F9016899
:1025F000A1614068E061012000E00020A070C0B24D
:1026000070BD00000300002010B50348FEF7F8F885
:102610000249086110BD00007C010020000000207C
:1026200038B50B46009204460022802100F008F8DD
:10263000002804D0606D40F020006065032038BDA4
:102640002DE9F8431E46914688460446089DFEF74C
:10265000FDFA401B351AFEF7F9FA074625480068CF
:10266000C0F3CB30684338E0701C37D0FEF7EEFA89
:10267000C01BA84203D215B1009860B32CE02068BB
:10268000416821F0E00141606068B0F5827F0BD1C4
:10269000A068B0F5004F02D0B0F5806F04D120687B
:1026A000016821F040010160A06AB0F5005F09D126
:1026B0002068016821F4005101602068016841F43C
:1026C00000510160012084F85100002084F850007E
:1026D0000320BDE8F8830025401E00902068816833
:1026E00038EA010004D000214945BDD10020F0E7BF
:1026F0000121F9E740000020704730B5002306E0D3
:10270000C45CCD5CAC4201D0002030BD5B1C934268
:10271000F6DB012030BDFEF751BD30B58FB028216A
:102720006846FDF728FD14210AA8FDF724FD0121C4
:102730000804CDE900100024029402250491CDE99B
:1027400007504FF4E01009906846FEF7BBFE0F20DB
:10275000CDE90A056802CDE90C4002210AA80E94D1
:10276000FEF7C4FD0FB030BD70470000F0B5026841
:10277000164B174C174D4FF08047984205D0B84282
:1027800003D0A04201D0A84203D122F070064A68CB
:102790003243984205D0B84203D0A04201D0A842AB
:1027A00003D122F44074CA6822434C6922F08002AB
:1027B000224302608A68C2620A688262984201D13A
:1027C0000969016301214161F0BD0000002C014055
:1027D000000400400008004010B5846842EA03226B
:1027E00024F47F440A432243826010BD826822F0B1
:1027F00070020A4342F007018160704710B5036A16
:10280000046A24F001040462846924F0F00444EAB8
:10281000021423F00A020A438461026210BD10B55B
:10282000036A23F0100303628369046A23F470438C
:1028300043EA023224F0A00343EA011182610162FB
:1028400010BD10B5406A0021C185C184FFF724FA8C
:1028500010BD0168CA6822F49072CA6001684A69B2
:1028600022F001024A61016B012904D10168CA68A2
:1028700022F01002CA60202180F83E10002101637E
:10288000704708B590F83E10222901D0022008BDFB
:1028900082684FF480539A4201D1016921B1816A63
:1028A0009A421BD04AB10AE00268816A5268C2F3B8
:1028B00008020A80816A891C08E0026972B1026814
:1028C000526802F07F020A70816A491C8162C18DE0
:1028D000491E0904090CC18503D019E00268526839
:1028E000F1E70168CA6822F02002CA600168CA687C
:1028F00022F48072CA6001684A6922F001024A61CA
:10290000202180F83E10016B012903D0FFF754FB12
:10291000002008BD002101630168CA6822F010028E
:10292000CA6001680A68D20602D50A68496800913F
:10293000818DFFF7B0F9EBE770B5044600680169D7
:10294000E26821F44051114301612169A068084304
:10295000616908432168CA6841F20C639A430243E3
:10296000CA6020684169A26921F440711143416144
:102970001E492068884202D1FEF75EFD01E0FEF7A5
:102980004BFD00EBC00101EB001260686421800088
:10299000B2FBF0F3B3FBF1F36FF018067343B2FB35
:1029A000F0F5B2FBF0F605EB8305322303EB0515DA
:1029B000B5FBF1F5B6FBF1F605F0F00505EB0615F4
:1029C000B2FBF0F6B2FBF0F0B0FBF1F06FF01802E2
:1029D000504306EB800003EB0010B0FBF1F02168E0
:1029E00000F00F002844886070BD000000380140EE
:1029F00081628285C28500210164222280F83E2006
:102A000080F83C100168CA6842F48072CA600168AC
:102A10004A6942F001024A610068C16841F0200140
:102A2000C160002070472DE9F041984617460E46D8
:102A30000446069D1DE0681C1BD02DB1FEF706F96B
:102A4000A0EB0800A84214D92068C16821F4D07115
:102A5000C1602068416921F001014161202084F8B2
:102A60003D0084F83E00002084F83C000320BDE8CF
:102A7000F0812068006836EA000004D00020B842E7
:102A8000D9D00020F3E70120F9E700000148FFF763
:102A900005B9000038010020FEE700000A4610B525
:102AA00001464FF47A730348FFF79CFA002800D0E0
:102AB000012010BD380100200FB4084B10B504A947
:102AC00002AA039800F0DEF8044602A9002000F0F4
:102AD00070FC204610BC5DF814FB0000B333000806
:102AE0000907090E002804DB00F1E02080F800143B
:102AF000704700F00F0000F1E02080F8141D7047CF
:102B000002E008C8121F08C1002AFAD170477047B6
:102B1000002001E001C1121F002AFBD17047000014
:102B20002DE9FF5FDDE90220010DDDF838B0024339
:102B300018D044F61050A1F2FF3141430D140F9804
:102B4000012820D0A5EB0B00401C5FEA000A4FF0E3
:102B50000004474EDFF81C91A046504616D5CAF136
:102B6000000728E00F98012443A2012808D0002183
:102B700000980F9BC0E90021C0E90243BDE8FF9F18
:102B80006FEA0B01F4E7CBF10000DEE7074612E045
:102B9000F80707D02246334640464946FDF73AFC3F
:102BA000804689462246334610461946FDF732FCD8
:102BB00004460E467F10002FEAD1DDE90201BAF18A
:102BC000000F42464B4602DAFDF724FC01E0FDF718
:102BD00093FC04460E460022284BFDF715FD03D852
:102BE0004FF0FF30014607E00022254B20463146DA
:102BF000FDF769FBFDF7EFFC102409E0002C0ADB70
:102C00000A220023FDF7F7FA019B30321A55641EA1
:102C100050EA0102F2D1641C019AC4F11103144478
:102C20000F9A012A03D0012208430DD10AE008437C
:102C300004D000204FF0110B0F9080E7A3EB0B05A1
:102C40006D1E0DE05B4504DD4FF0000205F101054E
:102C500004E003DA4FF00002A5F10105002AECD0F0
:102C600000980F99C0E90231C0E9004586E70000ED
:102C7000000024400000F03F300000000000F0435E
:102C80000000E03F2DE9FF4F95B09B468946064680
:102C900000250FE2252877D100242746F84A012194
:102CA000059400E0044316F8013F203B01FA03F0CD
:102CB0001042F7D130782A2811D06FF02F033078E6
:102CC000A0F13002092A16D8059A44F0020402EB5A
:102CD000820203EB42021044761C0590EFE759F89C
:102CE000042B0592002A03DA504244F40054059064
:102CF00044F00204761C30782E2816D116F8010F05
:102D000044F004042A280DD06FF02F023078A0F18F
:102D10003003092B09D807EB870302EB4303C718DD
:102D2000761CF3E759F8047B761C30786C280FD0BA
:102D300006DC4C2817D068280DD06A2814D104E08E
:102D4000742810D07A280FD10DE044F400140AE062
:102D500044F4801401E044F440147278824202D1B9
:102D600004F58014761C761C307866280BD013DCB2
:102D7000582877D009DC002875D04528F6D0462899
:102D8000F4D047281AD19DE118E0632835D0642893
:102D900079D0652812D195E1702873D008DC6728B6
:102DA000F1D069286FD06E280DD06F2806D1B5E01C
:102DB00073282CD0752875D0782874D05A46179966
:102DC00090476D1C75E1C4F30250022809D0032816
:102DD0000DD0D9F8001004280DD00D6009F10409B8
:102DE00067E1D9F80010EA17C1E90052F6E7D9F80F
:102DF00000100D80F2E70D70F0E719F8041B8DF854
:102E0000001000208DF80100EA46012003E059F887
:102E100004AB4FF0FF3061074FF0000102D40DE02A
:102E200008F101018846B9420FDA8045F8DB1AF84B
:102E300008100029F4D108E008F101018846814218
:102E4000FADB1AF808100029F6D105985B46A0EBCA
:102E5000080721463846179A00F094FA284400EBF8
:102E6000080507E04DE029E10DE01AF8010B5A468C
:102E700017999047B8F10108F7D25B4621463846CA
:102E8000179A13E142E00A220092C4F302524FF073
:102E9000000A022A08D059F804CB032A4FEAEC7141
:102EA0000AD00DE029E02AE009F1070121F007022C
:102EB000F2E802C1914609E00FFA8CFC4FEAEC718E
:102EC000042A03D14FFA8CFC4FEAEC71002907DA8F
:102ED0000A460021DCF1000C61EB02012D2202E028
:102EE000220504D52B228DF80420012203E0E207FD
:102EF00001D02022F7E7904659E00A2102E0102293
:102F00000DE010214FF0000A00910BE010224FF06D
:102F1000000A44F004040827009203E008224FF05E
:102F2000000A0092C4F30252022A05D059F804CBD9
:102F30000021032A08D009E009F1070121F0070266
:102F4000F2E802C1914605E01FFA8CFC042A01D187
:102F50000CF0FF0C4FF00008220728D5702806D08F
:102F6000009B83F0100353EA0A0305D00EE04022D1
:102F70008DF80420012208E05CEA010206D030222C
:102F80008DF804208DF8050002229046009B83F006
:102F9000080353EA0A030AD15CEA010201D162077D
:102FA00005D530228DF804204FF001087F1E5828E7
:102FB00004D034A003900EA802900DE036A0F9E7EB
:102FC00053466046009AFDF716F984460398825CE2
:102FD0000298401E029002705CEA0100F0D1029853
:102FE00006A9081A00F1200A600702D524F48034EB
:102FF00000E00127574502DDA7EB0A0000E00020B2
:1030000000EB0A01009005984144401A0590E00346
:1030100006D45B462146179A059800F0B3F905449B
:10302000002706E001A85A46C05D179990476D1C1D
:103030007F1C4745F6DBE0030CD55B462146179A1B
:10304000059800F09FF9054404E030205A4617998E
:1030500090476D1C0099481E00900029F5DC08E09F
:10306000029802995A460078491C02911799904794
:103070006D1CBAF10001AAF1010AF1DC65E1000062
:10308000092801003031323334353637383961623E
:103090006364656600000000303132333435363702
:1030A00038394142434445460000000000F058F9D9
:1030B0000544761C307800287FF4ECAD19B0284622
:1030C000BDE8F08F620700D4062709F1070222F05D
:1030D000070CFCE80223E14603F000485FEA080C15
:1030E00002D00FF2702C0DE05FEA045C02D50FF203
:1030F000682C07E05FEAC47C02D00FF2602C01E08C
:10310000AFF2700C4FF0FF3823F00043CDF850C001
:1031100065280CD006DC452809D046281DD0472854
:103120003DD13DE0662818D067287ED138E00021E7
:10313000112F01DB112000E0781CCDE9000106A968
:103140000EA8FFF7EDFCDDE90F010E9A03910021B7
:10315000009207F1010A04914DE04FF00040009702
:10316000CDE9011006A90EA8FFF7DAFCDDE90F0290
:1031700003920E9B11990022DDF80CA0009304929B
:1031800011B9791C00EB010AB7EB0A0004D4C0F1B5
:10319000FF3007F1010A0490AAEB0700019044E018
:1031A000012F00DA01270021112F01DD112000E09D
:1031B0003846CDE9000106A90EA8FFF7B1FCDDE90C
:1031C0000F010E9A0391002104910092BA46210743
:1031D0000CD40399514500DA8A46BAF1010F05DD96
:1031E000009AAAF10101515C302908D0B84202DAF4
:1031F00010F1040F06DA0121CDE9011015E0AAF162
:103200000101E9E7002805DC049901440491AAEBD7
:10321000000102E0411C514500DD8A460499401A34
:10322000401C01904FF000400290200704D4019808
:10323000504501DBCDF8048000208DF84F00029846
:103240000DF14F07B0F1004F25D02B200E900298C2
:103250004FF0020800280CDA404202902D200E9018
:1032600007E00A210298FCF7B0FF3031029007F81E
:10327000011DB8F10001A8F10108F2DC0298002854
:10328000EFD1791E0E980870307800F0200040F0E1
:10329000450007F8020D12A8C01B00F1070814989A
:1032A000007800B1012000EB0A01019801EBE07108
:1032B00005984144401A401E0590E00306D45B4641
:1032C0002146179A059800F05DF805441498007897
:1032D00018B15A46179990476D1CE00324D55B46F8
:1032E0002146179A059800F04DF805441CE0049813
:1032F000002807DBDDE90301884203DD0098405C1C
:10330000179901E0179930205A469047049805F123
:103310000105401C04900198401E019004D12E200C
:103320005A46179990476D1CBAF10001AAF1010A9B
:10333000DDDC05E017F8010B5A46179990476D1C24
:10334000B8F10001A8F10108F4DC5B462146179AA8
:103350000598ABE62D0000002B00000020000000C7
:103360002DE9F041044600251E461746880404D482
:1033700005E039462020B0476D1C641EF9D528466B
:10338000BDE8F0812DE9F041044600251E46904637
:10339000C80301D5302700E02027880404D505E0C4
:1033A00041463846B0476D1C641EF9D52846BDE835
:1033B000F0810A68531C0B601070704701460120B1
:1033C00005E000BF00EB80004000491EC9B20029A3
:1033D000F8D1704786B0FDF7F9FEFFF79EF9FFF7C9
:1033E00043F8FFF7B3F838483649002401604FF43A
:1033F000E131C0E901140C21C460C0E904418461D9
:10340000C461FEF751FD30483049F438016030495D
:10341000C0E901144FF48041C0E903414461846173
:10342000C4610462FDF718FCFFF774F82649122204
:1034300068312548FEF7AAFD23494FF40043483977
:10344000244A01F18C00FDF7A7F9234C04260A2534
:1034500020788DF80C0060788DF80D002089FF230E
:10346000010A8DF80E108DF80F0003A8CDE90006B3
:1034700015480022A0210295F438FDF7D9FD0A2055
:10348000FDF7D8FA05A8CDE900060F48FF23002272
:10349000A0210295F438FDF7A3FC9DF814202270BA
:1034A0009DF815306370BDF816000CA140BA20815C
:1034B000009005485430FFF7FFFA00BF00F0DEF837
:1034C000FCE70000004400403801002000540040A8
:1034D000A0860100000C014000000020253032646D
:1034E0002F253032642F25303464000070B5084831
:1034F00000250078FF2800D10F250024601CC0B2F1
:10350000294600F08FF8641C082CF7DB70BD000022
:10351000200000200248FF210170092000F082B83D
:103520002000002010B5044600F0A3F807210B206E
:1035300000F078F8204600F095F8BDE81040FFF75D
:10354000D5BF00002DE9F0410D460446FF210920BA
:1035500000F068F8002D07DA2CB10A21204600F0AF
:1035600061F8641EE4B26D42012602E006EB8600BB
:10357000460095FBF6F00928F8DC3CB195FBF6F027
:10358000C1B2204600F04EF8641EE4B20A270FE0F4
:1035900074B106EB8600400095FBF0F100FB115082
:1035A00090FBF6F0C1B2204600F03CF8641EE4B295
:1035B00096FBF7F6002EEBDC03480178092000F0BB
:1035C00031F82046BDE8F081200000202DE9F041CF
:1035D0000E4605461446FF21092000F023F8B4B139
:1035E000641EE0B2FFF7EAFE04460A270DE055B17B
:1035F000B6FBF4F0B0FBF7F107FB1101284600F031
:1036000011F86D1EEDB2B4FBF7F4002CEFD10448B5
:103610000178092000F006F82846BDE8F081000096
:103620002000002073B50D4C002201212046FDF73B
:1036300008FB4FF0FF352B46012269460848FEF78C
:1036400059F92B46012201A90548FEF753F9012239
:1036500011462046FDF7F5FA7CBD0000000C014044
:10366000980000200F2803D801460A20FFF7DABF90
:10367000704701210C20FFF7D5BF00002DE9FE4F58
:10368000804CA078A179884364D0FEF7BDFF206903
:10369000FCF788FD02460B467BA16846FFF70CFA53
:1036A0000720FFF73FFFFFF735FF042278A104F161
:1036B0001400FFF722F8784D01264FF03A0905F182
:1036C00008074FF0100B4FF01108A8B1E0782870F0
:1036D00028466169C0F80110014670A00088A1F871
:1036E000050081F807906846FCF750FD0246384611
:1036F0006946FCF727FDBEE06248042268A1143049
:10370000FEF7FBFF70B3E078287063486169C0F88A
:103710000110014664A00088A1F8050081F8079017
:10372000A1F12600FCF732FD5B49024638462639F6
:10373000FCF708FD58482638FCF728FD0830C0B2D1
:1037400062792A54401CC1B222796A545248FFF768
:10375000A5F9A671A07810B10020A071A070012079
:10376000BDE8FE8F4748042250A11430FEF7C5FF84
:10377000442718B3FFF7BAFE042240F25D21082067
:10378000FFF724FF4FF4FD610420FFF7DBFE40F25A
:10379000DC50FDF74FF9E07828703F486169C0F8C8
:1037A000011044A10988A0F8051043A1C7710A6857
:1037B00082604968C16001462A2047E031480422FE
:1037C00040A11430FEF799FFDFF800A14FF4005933
:1037D000E8B1002249465046FDF733FAE0782870F8
:1037E0002D486169C0F8011032A10988A0F80510C0
:1037F00037A1C7710A6882608988818147218173F6
:1038000001464F20244AC873594610749EE71D484C
:10381000042231A11430FEF770FFE0B101224946C5
:103820005046FDF70EFAE07828701B486169C0F831
:1038300001102BA10988A0F805103321C17129A11D
:103840000A6882604968C16001464620124A0874CD
:10385000414650747AE7E07828700F4824A109683F
:10386000C0F801106189A0F80510217BC171A16920
:103870008160E169C160084861790174217941740E
:10388000122163E700000020252E326600000000B0
:103890004449535000000000B20100204E443A0059
:1038A00045455052000000004F4D3A003753454700
:1038B000000000004C4544003036303532303234A0
:1038C000000000004F4E31330000000000100140A6
:1038D0004C454453414E47004F46465000000000BF
:1038E000433133004C45443133544154000000000F
:1038F0004E554C4C0000000070B54518002605F8E8
:10390000016C144601E02E55641C2846FCF73EFC71
:10391000401CA042F7D8284670BD000000000000FF
:10392000000001020304060708090000000001026C
:103930000304000054390008000000204400000087
:10394000002B00089839000844000020840500007E
:10395000102B00081203000203060000E807000015
:103960000000000000000000000000000000000057
:1039700000000000007E306D79335B5F707F7B015B
:103980004F370E670000000001000000100000002B
:08399000000000000024F40017
:04000005080000ED02
:00000001FF
